:100000003007002089B9010097B9010099B90100B2
:100010009BB901009DB901009FB9010000000000DB
:10002000000000000000000000000000A1B9010075
:10003000A3B9010000000000A5B90100A7B90100A3
:10004000A9B90100BFF90000ABB90100C7F9000070
:10005000F3F90000D1F90000CFF90000EBF900003E
:10006000B9F40000ADB90100AFB90100B1B90100A8
:10007000B3B90100B5B90100B7B90100B9B90100C0
:10008000BBB90100BDB90100BFB90100C1B9010090
:10009000C3B90100C5B90100C7B90100C9B9010060
:1000A000CBB90100496C0100CDB90100DBF90000BA
:1000B000E3F90000B79C0000390C0100CFB9010042
:0800C000D1B90100D3B9010020
:1000C8004FF4E07210440268914203D343681A4423
:1000D800914202D380680028F5D17047DFF85C07A9
:1000E800016891B94FF4803181604FF480514160CB
:1000F8004FF0FF31C16001610421DFF844274161FD
:10010800C2F8BC11DFF83C1701600120704701F10B
:10011800080313F0070305D001F10803C3F108032E
:1001280003F007031944D21A8161C26042F0010347
:100138004B60114428234B60DFF800170969C1613F
:1001480070472DE9F84F064601F1080010F0070046
:1001580008BF884607D001F10800C0F1080000F088
:10016800070001EB000802F1080010F0070006D0B4
:1001780002F10800C0F1080000F00700024415462B
:10018800A5EB0800A0EB030908EB030B43F0030001
:10019800C8F80400AB4528BF01F00CFA2879C0075D
:1001A80058BF01F007FAB9F1100F38BF01F002FA91
:1001B800B069854209D1F0684844F060C6F818B0C3
:1001C80040F00100CBF8040070E1706985420BD162
:1001D800B0684844B060C6F814B040F00101CBF8EC
:1001E80004104BF8000061E1686800F00301012980
:1001F80040F0AF80C008C0000190C00820283BD262
:10020800D5F808A0EF680090BD4208BF01F0D2F908
:10021800554508BF01F0CEF968680099C008C000CC
:10022800B0EBC10F18BF01F0C5F9009806EBC0008C
:1002380000F128018A4508D031698A45C0F08480D8
:10024800DAF80C10A94240F07F80574506D1009A91
:100258003068012191408843306077E02830874238
:1002680005D0306987426FD3B868A8426CD1CAF804
:100278000C70C7F808A069E0EF68D5F818A0AF427D
:100288000CD0A8683169884223D3C168A94204BF49
:10029800B968A9421DD1C760B8601CE005F1140017
:1002A800076837B905F110000768A7B101E00846EB
:1002B800076807F114010A68002A02BF07F1100154
:1002C8000A68002AF3D13169884202D3002101600B
:1002D80001E001F06FF9BAF1000F37D0E86906EBD9
:1002E80080004FF49871084401688D4208D1076076
:1002F800A7B9EA697068012191408843706025E0D8
:100308003069824508D3DAF81000A84214BFCAF849
:100318001470CAF8107001E001F04CF9B7B13069F7
:10032800874211D3C7F818A0296929B1814226BF8D
:1003380039618F6101F03EF9686938B131698842E5
:1003480002D37861876101E001F034F9019805442E
:10035800814468684008400068604FEAD90549F060
:100368000100CBF804004BF80990202D23D206EBAE
:10037800C50000F12807BA46B9F1100F38BF01F0DF
:1003880019F9306820FA05F1C90704D40121A940F8
:100398000843306006E0B868316988422CBF82465D
:1003A80001F008F9C7F808B0CAF80CB0CBF808A0F3
:1003B800CBF80C707AE05FEA192108BF002023D03F
:1003C800B1F5803F28BF1F201ED2A1F58070000C18
:1003D80000F008008140A1F58052120C02F00402DE
:1003E8009140A1F580431B0CC0F10E0003F00203FD
:1003F800801AC01A994000EBD130C11D29FA01F2C8
:1004080002F0010101EB400006EB80014FF4987205
:100418001144CBF81C000022CBF81420CBF8102094
:10042800726822FA00F3DB0707D4012303FA00F00D
:1004380010437060C1F800B01DE009681F281DBF97
:100448004008C0F1190009FA00F0484600E01146DA
:100458004A68D208D2004A4514D0C20F01EB820282
:1004680002F1100340001A68002AF0D13069834273
:100478001AD3C3F800B0CBF81810CBF80CB0CBF8EF
:1004880008B013E032698868914228BF90420BD3C4
:10049800C0F80CB0C1F808B0CBF80800CBF80C10C5
:1004A8000020CBF8180001E001F084F808F10800FA
:1004B800BDE8E68F2DE9FA4D0546DFF880030068B0
:1004C80082B008B9FFF70AFEDFF870030299806866
:1004D80041182F31401E21EA00000299814280F024
:1004E800A9814FF4D8716E18B16839B13268801893
:1004F800824280F09F818142C0F09C8101F06AF8BD
:1005080000281EBF0446D0F8008014F1010F00F047
:1005180091813068716840448142306038BF01463B
:100528007160A86980BB286908B1844200D22C6137
:100538000020F0613461C6F8148005F12801BF4835
:10054800006868624FF0FF3028620020C960896047
:1005580001F108024A610A61801C10312028F5D394
:10056800B748854203D1A8F1280221462AE055F868
:10057800040CC00805EBC000A0F1080104EB08005A
:10058800401AA0F128021DE04FF4E070291808462F
:1005980000E08068D0B1026843681A449442F8D1F8
:1005A800027B120712D4AA6903689A420ED34768DD
:1005B8003B449A420AD208EB07014160E868A969FE
:1005C80008EB00022846FFF7A2FD1DE128698442D6
:1005D800084638BF2C6104EB080100E0806880B150
:1005E80002688A42FAD1017B09070AD4046041688B
:1005F800414441602146029B284604B0BDE8F04DC5
:100608009FE5AF6939462846FFF75AFD4FF0000BC2
:100618000168406808440190273810F007010199E3
:100628000EBF0020C0F1080000F0070008442F3872
:1006380007F11001884234BF00970090009804F138
:10064800080100F1180A11F00701A8F1280005D0E7
:1006580004F10801C1F1080101F00701401A214421
:10066800A961E86040F001024A600844282242601B
:1006780072480069E8610098083010F0070018BF58
:1006880000F098FF00991B2048604FF4E07129445E
:10069800B1E80C5000980830A0E80C503461C6F856
:1006A8001480C6F81CB000980830B061019801E0C9
:1006B8000AF1040A0721CAF804100BF1010B0AF128
:1006C80008018142F4D3BBF1020FB8BF00F072FFFA
:1006D8000098B84200F09880C01B3918C4084A68CE
:1006E800520852004A6040F0010179603850202CCD
:1006F80020D205EBC40101F12806B046102838BF06
:1007080000F058FF286820FA04F1C90704D4012131
:10071800A1400843286006E0B068296988422CBFD8
:10072800804600F047FFB760C8F80C70C7F808802B
:10073800FE6069E0010A23D0B1F5803F28BF1F2180
:100748001ED2A1F58072120C02F008029140A1F5A8
:1007580080531B0C03F004039940A1F58044240C3A
:10076800C2F10E0204F00204D21A121BA14002EBDD
:10077800D131CA1D20FA02F303F0010202EB410154
:1007880005EB81024FF498731A44F96100237B61E9
:100798003B616B6823FA01F4E40705D40120884023
:1007A8001843686017601CE012681F291DBF4908BC
:1007B800C1F1190100FA01F1014600E01A46536837
:1007C800DB08DB00834210D0CB0F02EB830303F17D
:1007D800100449002368002BF0D12869844211D302
:1007E8002760BA61FF60BF600EE0296990688A429D
:1007F80028BF884206D3C7609760B860FA600020B7
:10080800B86101E000F0D6FEE8680299814211D291
:10081800401AE860A969029A0A44AA6140F00100F6
:100828005060029840F00300486004B001F10800ED
:10083800BDE8F08D002004B0BDE8F08DA058002080
:10084800A84B00206859883C2DE9F84F044600263B
:1008580089465FEA1920C9F1000B08BF002123D09F
:10086800B0F5803F28BF1F211ED2A0F58071090C6A
:1008780001F008018840A0F58052120C02F0040231
:100888009040A0F580431B0CC1F10E0103F0020358
:10089800891AC91A984001EBD030C11D29FA01F212
:1008A80002F0010101EB400104EB8100D0F83001B6
:1008B80018B31F290FBF4A464A08C2F1190209FA9C
:1008C80002F2002300E052004568ED08ED00A5EBB8
:1008D80009055D4503D25FEA050B06460BD045695D
:1008E800D70F00EB8700002D00691CBF85422B46FF
:1008F8000028E8D11846B8BBC6BB01208840400094
:10090800414208436168084000F05D814142084067
:10091800401E010B01F01001C840420902F0080214
:10092800D040830803F00403D840450805F00205C9
:100938005118E8405918C0F3400729443944F84091
:10094800401804EB8000D0F830010DE008464168FB
:10095800C908C900A1EB090159453CBF8B460646A9
:1009680001690029F2D140690028F0D1002E00F079
:100978002A81A068A0EB0900834580F024812069C2
:100988008642C0F01E817068C00809EB0B08C000E1
:10099800404518BF00F00EFE06EB0905AE4280F098
:1009A8001081F768D6F818A0B7420CD0B068216952
:1009B800884223D3C168B14204BFB968B1421DD18E
:1009C800C760B8601CE006F11400076837B906F183
:1009D80010000768A7B101E00846076807F114018D
:1009E8000A68002A02BF07F110010A68002AF3D139
:1009F8002169884202D30021016001E000F0DAFD9C
:100A0800BAF1000F39D0F06904EB80004FF4987107
:100A1800084401688E4209D10760380014D1F26990
:100A28006068012191408843606026E02069824522
:100A380008D3DAF81000B04214BFCAF81470CAF824
:100A4800107001E000F0B6FDBFB12069874212D3F3
:100A5800C7F818A0306930B12169884226BF3861CB
:100A6800876100F0A7FD706938B12169884202D317
:100A78007861876101E000F09DFDBBF1100F09D29C
:100A880048F00300706006EB0800416841F001017E
:100A9800416095E049F0030070604BF00100686028
:100AA8004FEADB0045F80BB020281DD204EBC0014B
:100AB80001F12807216821FA00F2D207BB4605D4C4
:100AC800012202FA00F00843206006E0B8682169B4
:100AD80088422CBF834600F06DFDBD60CBF80C50FA
:100AE800C5F808B0EF606BE05FEA1B2023D0B0F5D3
:100AF800803F28BF1F201ED2A0F58071090C01F08D
:100B080008018840A0F58052120C02F004029040BF
:100B1800A0F580431B0CC1F10E0103F00203891AF2
:100B2800C91A984001EBD030C11D2BFA01F202F02E
:100B3800010101EB400004EB80014FF4987211446D
:100B4800E86100226A612A61626822FA00F3DB0721
:100B580006D4012303FA00F0104360600D601CE026
:100B680009681F281DBF4008C0F119000BFA00F0E2
:100B7800584600E011464A68D208D2005A4510D0BB
:100B8800C20F01EB820202F1100340001A68002A2A
:100B9800F0D12069834211D31D60A961ED60AD6079
:100BA8000EE022698868914228BF904206D3C5604A
:100BB8008D60A860E9600020A86101E000F0FAFCFF
:100BC80008E100F0F7FC02E12DE9F84F04468846F9
:100BD800606841420840401E010B01F01001C84006
:100BE800420902F00802D040830803F00403D84009
:100BF800450805F002055118E8405918C0F34006A9
:100C080029447118F040401804EB8000D0F83001F6
:100C18004168C908C9000646A1EB080A09E0084668
:100C28004168C908C900A1EB080151453CBF8A4683
:100C3800064601690029F2D140690028F0D12069EF
:100C48008642C0F0C2807068C00808EB0A09C0007C
:100C5800484518BF00F0AEFC06EB080B5E4580F077
:100C6800B480F768B569B7420CD0B068216988428A
:100C780023D3C168B14204BFB968B1421DD1C7606E
:100C8800B8601CE006F11400076837B906F11000D7
:100C98000768A7B101E00846076807F114010A6868
:100CA800002A02BF07F110010A68002AF3D121695E
:100CB800884202D30021016001E000F07BFC002D96
:100CC80035D0F06904EB80004FF49871084401684E
:100CD8008E4209D10760380011D1F269606801219C
:100CE80091408843606022E02069854205D32869E5
:100CF800B04214BF6F612F6101E000F05BFCB7B137
:100D08002069874211D3BD61306930B121698842B9
:100D180026BF3861876100F04DFC706938B12169E0
:100D2800884202D37861876101E000F043FCBAF1A0
:100D3800100F09D249F00300706006EB0900416802
:100D480041F0010141603FE048F0030070604AF063
:100D58000100CBF804004BF80AA0D4F808804FEA49
:100D6800D805202D28BF00F025FCB8F1000F27D0AA
:100D7800D4F81490009504EBC50000F128052F461F
:100D8800B8F1100F38BF00F015FC2068009920FA60
:100D980001F2D10705D4009A01219140084320604F
:100DA80006E0A868216988422CBF074600F002FCCB
:100DB800C5F80890C7F80C90C9F80870C9F80C5025
:100DC800C4F808A0C4F814B004E000F0F3FB002055
:100DD800BDE8F28F06F10800BDE8F28F2DE9F04F6B
:100DE80083B00546C046C046F52DDFF8C04780F001
:100DF80002810B2D31BF102705F10B00C708FF003A
:100E08002068FE08F04010F0030F42D0C04300F005
:100E18000100861904EBC60000F12808F700D8F88D
:100E280008506868C008C000B84218BF00F0C2FB8C
:100E3800D5F80890454508BF00F0BCFB4D4508BFF4
:100E480000F0B8FB6868C008C000B84218BF00F0DE
:100E5800B1FBC84505D120680121B1408843206015
:100E68000DE02069814508D3D9F80C00A84204D1C7
:100E7800C8F80890C9F80C8001E000F09BFB47F027
:100E880003006860E8190835416841F001014160D4
:100E9800F9E0A168B94280F0C080002800F0A28083
:100EA800012505FA06F149004A42B04011430840BD
:100EB80041420840401E010B01F01001C8404209A0
:100EC80002F00802D040830803F00403D840460823
:100ED80006F002065118F0405918C0F3400871187E
:100EE800414420FA08F000EB010804EBC80000F1C7
:100EF80028094FEAC80AD9F808607068C008C00015
:100F0800504518BF00F056FBD6F808B04E4508BF4C
:100F180000F050FB5E4508BF00F04CFB7068C0084D
:100F2800C000504518BF00F045FBD94505D12068E1
:100F380005FA08F1884320600DE02069834508D34D
:100F4800DBF80C00B04204D1C9F808B0CBF80C901B
:100F580001E000F02FFB47F003007060AAEB0708E0
:100F6800F019019048F0010001994860019840F893
:100F78000880A7684FEAD70ABAF1200F28BF00F007
:100F880019FB47B3CDF800A004EBCA00D4F81490BD
:100F980000F1280AD346102F38BF00F00BFB206859
:100FA800009920FA01F2D10705D4009905FA01F158
:100FB8000843206007E0DAF80800216988422CBF5E
:100FC800834600F0F7FACAF80890CBF80C90C9F8F5
:100FD80008B0C9F80CA0C4F8088006F10805019803
:100FE800606150E06068C0B339462046FFF7ECFD09
:100FF800050012D047E015F1400F28BF4FF0FF372A
:101008000BD205F10B00C7086068FF0028B139460C
:101018002046FFF719FC050035D1A068B8421CD35B
:10102800C11B626910290AD3D0196061A16041F01F
:1010380001034360415047F0030050600AE000217B
:10104800A160616140F0030151601044416841F0C2
:101058000101416002F1080515E0E06887420DD200
:10106800C01BA169E060CA19A26140F0010050608C
:1010780001F1080547F00300486004E039462046BE
:10108800FFF718FA0546C046C046284603B0BDE833
:10109800F08F00B970472DE9F047A0F10804C04669
:1010A800C046DFF8085528698442C0F07982616833
:1010B80001F00302012A00F07382CA084FEAC2084D
:1010C800CA0704EB080937D4226811F0030F00F0AF
:1010D800698251420C4484429044C0F0618269693B
:1010E8008C4200F0D980D608202E70D2D4F80CA0FB
:1010F800A768544508BF00F05DFABC4208BF00F07D
:1011080059FA6068C008C000B0EBC60F18BF00F0FD
:1011180051FA05EBC60000F128018F4205D0296974
:101128008F4251D3F968A1424ED1BA453DD12868C2
:101138000121B140884328604C4580F03182D9F8BC
:101148000400C10740F12C82810700F17D81A96963
:10115800894540F0B680E868AC614044E86040F0FA
:101168000101616069698C4202D100216961A9604D
:10117800E969814280F01682DFF83404006808B912
:10118800FEF7ACFFA969002900F00C82E86829285D
:1011980024BF2846FEF794FFE869E968884280F092
:1011A80001824FF0FF30E861FCE12830824506D02B
:1011B8002869824508D3DAF80800A04204D1C7F8A4
:1011C8000CA0CAF80870B7E700F0F4F9B4E7E768CC
:1011D800A669A7420BD0A168814222D3C868A04261
:1011E80004BFB868A0421CD1CF60B9601BE004F10D
:1011F80014010F6837B904F110010F689FB101E0BD
:1012080011460F6807F114021368002B02BF07F19B
:1012180010021368002BF3D1814202D3002008602A
:1012280001E000F0C7F9002E86D0E06905EB8000E8
:101238004FF49871084401688C4209D1076038005E
:1012480011D1E2696868012191408843686073E7B9
:101258002869864205D33069A04214BF7761376197
:1012680001E000F0A7F9002F3FF466AF2869874234
:10127800AAD3BE61216929B1814226BF39618F6134
:1012880000F098F9606900283FF456AF2969884250
:101298009AD3786187614FE799F8040000F003005A
:1012A80003287FF449AFC5F80880D9F8040040083E
:1012B8004000C9F8040048F00100606044F8088064
:1012C80070E16969894508D1A8686C614044A860E3
:1012D80040F001016160205064E1C008C0004FEA9D
:1012E800D00ABAF1200F804437D2D9F80C70D9F857
:1012F8000860B94508BF00F05DF9B14508BF00F0C6
:1013080059F9D9F80400C008C000B0EBCA0F18BFDB
:1013180000F050F905EBCA0000F128018E4207D011
:1013280029698E42C0F08380F168494540F07F808A
:10133800B74206D12868012101FA0AF188432860DA
:1013480077E02830874205D0286987426FD3B8688C
:1013580048456CD1F760BE606BE0D9F80C70D9F8DD
:1013680018604F450DD0D9F808002969884223D361
:10137800C168494504BFB96849451DD1C760B8600F
:101388001CE009F11400076837B909F11000076873
:10139800A7B101E00846076807F114010A68002AA6
:1013A80002BF07F110010A68002AF3D129698842AF
:1013B80002D30021016001E000F0FCF8002E38D0D3
:1013C800D9F81C0005EB80004FF4987108440168B7
:1013D80089450AD10760380012D1D9F81C206868FD
:1013E800012191408843686023E02869864205D33B
:1013F8003069484514BF7761376101E000F0DAF8D9
:10140800BFB12869874212D3BE61D9F8101029B13B
:10141800814226BF39618F6100F0CCF8D9F81400F9
:1014280038B12969884202D37861876101E000F008
:10143800C1F848F00100606044F808806869844297
:101448000BD1C5F80880ADE040084000C9F8040099
:1014580048F00100606044F808804FEAD807202F60
:1014680022D205EBC70000F128094E46B8F1100F4B
:1014780038BF00F09FF8286820FA07F1C90704D49C
:101488000121B9400843286007E0D9F80800296914
:1014980088422CBF064600F08DF8C9F80840F46071
:1014A800A660C4F80C907DE05FEA182008BF002110
:1014B80023D0B0F5803F28BF1F211ED2A0F5807130
:1014C800090C01F008018840A0F58052120C02F0C6
:1014D80004029040A0F580431B0CC1F10E0103F0FB
:1014E8000203891AC91A984001EBD030C11D28FAA5
:1014F80001F202F0010101EB400105EB81004FF41C
:1015080098721044002262612261E1616A6822FADD
:1015180001F3DB0706D4012303FA01F111436960E3
:1015280004601CE000681F291DBF4908C1F11901AA
:1015380008FA01F1414600E010464268D208D2009C
:10154800424510D0CA0F00EB820202F11003490095
:101558001A68002AF0D129698B4211D31C60A06156
:10156800E460A4600EE02A698168904228BF914235
:1015780006D3CC608460E060A1600020A06101E037
:1015880000F018F8286A401E28620BD1D5F8C80167
:1015980000E080680028FCD14FF0FF30286201E0AD
:1015A80000F008F8C046C046BDE8F087A84B002008
:1015B800A0580020012000F023B88268521C8260E5
:1015C800426832B10268531C036011704168491EB9
:1015D800416070470749086808B10020704706480D
:1015E800C008C00008600549C908C900091A016097
:1015F800704700BF605B002037070020304700209D
:101608002021090326311820ABBEF9E70188491CBF
:1016180089B201B9012101800088704710B50446DC
:10162800012000F087FEDFF8BC0C04600020BDE854
:10163800104000F07FBEDFF8AC0C828A1AB1026954
:101648008918016170478268891881607047DFF8DE
:10165800E00C00210160C1610162C16281624FF644
:10166800FF7101870021816081810161818270475A
:10167800DFF8701CC2784A6042F2130382889A42EB
:1016880000D0704700B583B082788DF8022080883A
:10169800ADF8040001F13800FFF7B8FFADF800001D
:1016A80000AA0621DFF89C0C01F0FAFA07BDF0B594
:1016B80005468BB0DFF82C7CA8787860AE1CDFF884
:1016C800844CB6F80100B0F110016BD040F2F23250
:1016D800891A00F07980891F64D0091F012982BF07
:1016E80040F20242891A01295CD940F2F332891A80
:1016F80058D0891E56D0113942D0891F52D00A3984
:1017080050D0093900F08D80091F4BD0143949D0C9
:10171800113947D040F2AB32891A1FD0091F3CD08B
:10172800091F40D04FF47F72891A00F0B380891ED8
:1017380000F0968040F6FB32891A00F0C7800C3919
:1017480030D009395CD0491E49D0491F022940F2DE
:10175800B2804DF60572891A24D0BCE00A2001F047
:10176800EAFAB6F805104180024631790170F1793C
:101778000171718901813189C1804FF483712AE037
:1017880000F065FC0246301D911C03780B7043780D
:101798004B700220507005211DE0B6F80700B860B4
:1017A800B088B881B6E00622311D07F1300001F09B
:1017B800DFFA062001F0BFFA05460622311D01F0C6
:1017C800D7FA2A46082106E000F041FC3179016089
:1017D80002464FF48171204601F019FA9AE0082078
:1017E8008DF80E000822311D0DF10F0001F0C0FA2E
:1017F80000F092F8ADF80C0003AA40F6080186E064
:1018080010208DF81A001022311D0DF11B0001F077
:10181800AFFA00F081F8ADF8180006AA40F6070103
:1018280075E068798DF80600287A8DF80700E88851
:1018380001F069FB40F2024558B100F1140106229B
:1018480000A801F0A5FA00AA2946204601F028FAC6
:1018580003E0062100A801F0ABFB00AA294656E0E8
:1018680068798DF80C0090B9E888A968059101F0AD
:101878004AFB38B100F1140106220DF10D0001F008
:1018880077FA04E006210DF10D0001F095FB03AA9B
:1018980007213CE068798DF80900E88801F033FBFE
:1018A80008B190F82C008DF8080002AA287A8DF863
:1018B8000A000B212BE0697900910CBFE888002011
:1018C800ADF8040000AA40F2023120E0B079386196
:1018D800B088B8821EE068798DF8020040F66D4144
:1018E800B5F80300ADF80400B6F80100401A06D0B8
:1018F80041F29931401A02D0801E042802D800F023
:101908000BF800E0388FADF8000000AA0621204649
:1019180001F0C6F90BB0F0BD07F1380076E62DE905
:10192800F8460546A878012873D0022808D003286D
:1019380059D0052800F0B080062800F0BA80C5E02C
:10194800AC1C0027657817E001EBC500001901F110
:10195800010A807848445FFA80F95FFA8AF1A9425F
:10196800F2DB57FA89F0001990F90200307030461E
:1019780001F002FC7F1CFFB2AF42E0DA2A2001F03E
:10198800DAF90600DBD038190622807870707819E9
:10199800001980783072680012FB07000019811C5A
:1019A800B01C01F0E5F907EBC50000194FF0000A7B
:1019B8008078B07205EBC50006E00AEBC500001997
:1019C8000AF1010A807848445FFA80F95FFA8AFAD6
:1019D800BA45F2DB09EB0400B27A811C06F10B0070
:1019E80001F0C6F9B9E7A88801F08DFA04006DD0B6
:1019F800E87800286AD1E888A4F8600004F160005B
:101A080069894180298981802046BDE8F24601F034
:101A180046BBA879E979002808D101B1012105F16F
:101A2800080001F087FA040011D14FE005F1080021
:101A380001F0DAF9040049D00220E0630622DFF859
:101A4800301B04F1200001F0A3F90020A062E8781F
:101A580090B9A988204601F0F9F9E889A4F860004E
:101A680004F16000698A4180298A81802046BDE8A6
:101A7800F446002101F018BE00202061E878002813
:101A880014BF40F400710021204601F00DFE2046ED
:101A9800BDE8F24601F0DDB9B5F8030001F033FA0C
:101AA800040013D0B5F80D106A1DBDE8F84602F021
:101AB8006BB8B5F80B000090B5F80930B5F80720F9
:101AC800B5F80510B5F8030000F0E6FFBDE8F186AB
:101AD8002DE9F04F044685B02078DFF868580128D2
:101AE80052D0022858D0032800F0B081042800F012
:101AF8000E81052800F09781062800F053810728F9
:101B080000F04782082800F034810E2800F0F780A2
:101B18000F2800F0F880122800F06582132800F0E2
:101B2800D680142800F07282162800F0C180172889
:101B380000F0B58118281CD0222818BF2F282BD0D8
:101B4800302800F01181312800F0D481322800F0CB
:101B5800C481332800F01082342800F09A80362897
:101B680000F04B813B2800F00D823E2800F03782C0
:101B78005EE200F064FA060005D0217E04F1080256
:101B880003F0A2FA54E2FEE700F061FAA1780160DE
:101B980002464FF4817148E20026A71C2F28B04660
:101BA80010D10E20F021C219401C527852B1C3192D
:101BB8005B78092B03D1C319A2F101089E1C1018E8
:101BC800491EF0D14FF0000A4FF0060923E038789B
:101BD8000D2111FB00A0C01990F901008BF80D0030
:101BE80020782F2808D18BF80F802EB14246314635
:101BF8000BF1100001F0BCF806225946092003F049
:101C08009FFB8BF80E005A4640F20111284600F05F
:101C1800FEFF0AF1010A3878824545DA08F1110019
:101C280001F089F85FEA000B3ED009FB0A70411CFD
:101C38000622584601F09CF8387819FB00A0C01914
:101C48000AEB4A0140788BF80600387801EBC000AF
:101C5800C219C1199278C978C0191202407842EAAB
:101C680001410843CBF808000B2138784FEA4A02B3
:101C780011FB0020C01990F902008BF80C0000201D
:101C88008BF80F0020780228A1D17F208BF80D0057
:101C9800B2E700F0D4F9060006D003F0CBF800282C
:101CA800304602D003F0EFF9C2E100F0B5FEBFE123
:101CB80000F0C5F90600FAD003F0BCF80028304659
:101CC80002D003F0EEF9B3E100F0B0FEB0E1002578
:101CD800A0788542FADA04EB8507B7F8030001F02B
:101CE80012F9060009D0B7F8051096F83900401A1D
:101CF80086F839003046FFF79EFC6D1CE8E7204661
:101D0800FFF7D5FC94E12046FFF7B2FC90E1E07ABA
:101D18000128FBD11021A01C01F066F80600F5D0BF
:101D28000220F06330610622DFF8441806F1200033
:101D380001F02EF80020B062286820B141682A46D8
:101D4800304600F066FF03F053FB054640F20940B9
:101D5800288206220720A874A11C05F1130001F0AF
:101D680007F801206876EFE000F06DF9060018D05A
:101D78000EE000F068F9060013D0617996F8450086
:101D8800002914BF40F0010000F0FE0086F845006D
:101D9800A078002814BF40F400710021304601F0FB
:101DA800DDFC45E100F04FF90600FAD0A07838B91B
:101DB80096F8450000F0FE0040F0020086F8450065
:101DC80040F2052596F84400A478800706D596F8D1
:101DD8005B0018B92C46304600F04CFB082000F098
:101DE800AAFF0200DDD0002C14BF44F400700020CC
:101DF800506016602946304618E11021E01C01F0B9
:101E080099F80028CDD00C2000F095FF0600C8D026
:101E1800A078B0600622E11C304600F0A9FF3246E7
:101E28004FF4827101E100F00EF9060027D000207E
:101E3800306140F6FF70F0856079002814BF40F4E7
:101E480000710021304601F00FFC24E01021601DD4
:101E580001F070F8060012D0A07888B9B4F8031021
:101E6800304600F0F3FFE07A28B196F8450040F0DC
:101E7800010086F845000021304601F015FCD7E046
:101E880000203061A078002814BF40F400710021C0
:101E9800304601F009FC304600F0DBFFC8E000F0F6
:101EA800CEF810B903F048F9C2E00622A11C0920B7
:101EB80003F046FA10F1010F0AD0102300AA0A21F4
:101EC80003F06CFA20B100A9A01C00F0F9FAAFE009
:101ED8000021A01C00F0F4FAAAE0A07AC007FBD504
:101EE80000F0ADF8064696F8440040F0020086F887
:101EF80044009DE000F0A3F8064602F09BFF28B3DB
:101F0800012086F83A0000271D2003F07BFA05001F
:101F180006D040F22B40288205F113070920A87447
:101F28000622A11C00F04AFD02F09AFFB8710020B9
:101F3800F87102F088FF18B996F84400800701D5B7
:101F4800052000E004203872284612E000F073F8FB
:101F5800060006D040F23440308206F1130507200F
:101F6800B0740622A11C284600F002FF1820A871B0
:101F7800304603F0F6FA5BE000F061F8A16803F080
:101F880032F855E000F05BF8A168002203F04AF847
:101F98004EE0A078002628B9022104F1090003F0D8
:101FA800F9FA064606F10C0000F0C5FE07003FD01E
:101FB800A07808B140F4007038600622E11C381D92
:101FC80000F0D6FEBE7236B1324604F1090107F1BF
:101FD8000B0000F0CDFE3A4640F2051125E0204600
:101FE800FFF79DFC24E01021E01C00F0A3FF060091
:101FF8001ED0607A00280CBF01200220F06300F098
:1020080026F8A8B10660024609210EE000F01BF888
:1020180006000DD060793064082000F08CFE38B1DD
:1020280006600246617901710A21284600F0EFFD39
:1020380005B0BDE8F08F00251B2003F0E3B910219F
:10204800A01C00F077BFB4F8030000F05CBF0420C8
:1020580000F071BE0146DFF8300903F0B0BCB448A7
:10206800C169002906BF806A002801207047B0496D
:10207800CA69002022B110461268CA6100210160B5
:10208800704780B503F0B4F940F6034100F0ACFAAC
:10209800B5E138B5934C10B1022807D031BD012005
:1020A8006060BDE83140ECE703F04CFBFFF7DFFF71
:1020B8000028F9D103F0C6F9050028D005F1100071
:1020C80001780E2902BFB0F8031040F6034291428E
:1020D80018D1417941B9807860600120FFF79EFAF4
:1020E800022000F027F90DE003290BD1FFF7AFFF1D
:1020F800020007D040F2065010600421DFF8740493
:1021080000F085FD2846BDE8324003F07CB931BDBA
:1021180010B503F097F9040007D004F11000FFF799
:10212800D7FC204603F06FF904E0FFF7A0FF08B1E1
:1021380003F050FEBDE810400BE10446172003F001
:1021480061B980B503F054F918B141F2090100F002
:1021580013BC00F0ADBB4FF4C17010BD10B5044600
:1021680003F046F900B9F6E7DFF8201809680C73A0
:1021780040F61A4100F02CF804E001820221817433
:10218800A0F8134003F0EDF9002010BD10B50024AD
:1021980000F0ABF830B142F20101018200F1130402
:1021A800082181743F212170072161700021A170ED
:1021B800E17021716171A171E171E3E710B500F07F
:1021C80042FA20B140F6454100F002F8DAE7C2E7EA
:1021D800018201218174C4747047000038B5544CE1
:1021E80010B1022804D031BDA0610920A06131BD21
:1021F800FFF78EFF60680128F9DBA069411CA16127
:10220800FF240B286DD8DFE800F006192C303E4279
:1022180048505B616467FFF70EFF28B140F6334111
:1022280000F0E9F807218174452129800421A5F8E7
:102238000310AC700A21A5F8051040E000F054F82E
:1022480028B140F6014100F0D6F8082181742C70BD
:102258006C70AC70EC702C716C71AC713F21E971D1
:102268002DE0BDE83240002078E7002400F0ECF9CA
:1022780030B140F65641018200F113040121817406
:10228800012121701BE0BDE83240012096E703F0F0
:10229800AFF8A0B142F2020104E003F0A9F870B16E
:1022A80041F2050100F0A0F909E003F0A1F818B126
:1022B80040F6314100F098F901218174C17474E24B
:1022C800BDE832404FF4FA4000F0DCBBBDE83140D5
:1022D8005CE7BDE8314034E7BDE832400320FFF752
:1022E8009DB931BDB056002000251C2003F08AB8E6
:1022F80010B510B1022817D010BD002203211148D3
:1023080000F085FCDFF88416096801208873DFF87F
:102318005C0704685CB1F821204603F03BF92146CC
:10232800BDE81040C0B26EE0BDE81040F0E610BD58
:10233800B0560020DFF83827DFF83817126851F850
:10234800221008479C5A002000BF0220F2E7002014
:10235800F0E770B5DFF820572968002404E091F809
:10236800380000B1641C89680029F8D1E4B234B39C
:10237800352003F047F810B340F63541018200F1EB
:1023880013022121817414700023296811E091F847
:1023980038506DB1DBB202EB8305CE8DA5F8016034
:1023A8005B1C91F83860A5F80360002581F8385067
:1023B80089680029EBD1A100491C8174DCE070BD5B
:1023C80010B500F0F7FA40B140F211410182022144
:1023D8008174E18DA0F81310D4E6BCE638B500F09E
:1023E800F0FA30B140F2134100F062F88D7000F05D
:1023F800DABA00F093BA018200F113057047BDE81C
:10240800024003F0AEB8F8B500F04DF9070005D06A
:1024180040F6134000F0FBF90220B874F82130466A
:1024280000F0CAFD22462946304600F0A1FCF820FB
:10243800B874A4E170B50446DFF83406818A00292F
:102448000CBF00F1200500F1240503E0066803F045
:1024580079F92E60286820B1C168A142F6D00546F6
:10246800F8E794F839102046FFF7E5F8002084F8DB
:10247800390070BD10B504462069002818BF01282E
:1024880002D140F2811010BD032802D100F06EF98C
:102498000AE0FFF753FE38B140F2064100F008F8B1
:1024A80013228A7003F05DF801202061002010BD1E
:1024B80001820321817400F11301E28D0A807047C3
:1024C800F8B50D0004460ED100F0CCFA060003D092
:1024D80040F20C4000F054F806222146284600F04D
:1024E80047FC304613E000262A2002F08BFF070045
:1024F80005D040F20B4000F08AF91620B87400F0BD
:1025080007F810222946B01D00F032FC384637E1A2
:1025180006222146304600F02BBC32B50446012085
:10252800E18D40F6FF72914207D100A803F073F9DC
:1025380031BD03F044FA009500200099A1B10D685F
:10254800009A002111600099CC600099896860F3B5
:10255800410100988160DFF81805818A00290099F7
:1025680014BF24302030E4E702F0BBFF31BD000087
:10257800E05600209C5A0020BDE8704002F0F1BFF0
:10258800308206F113050620B07470472DE9F84330
:1025980007468846164699460024232002F032FF53
:1025A800050006D042F20600288205F113040F2028
:1025B800A8742780A4F80280267184F80590012E5B
:1025C8000898A07118BF032E04D109990622E01DAE
:1025D80000F0CEFB0A9860730B98A073284602F0AF
:1025E800C0FFBDE8F24374E00182002181747047A6
:1025F80070B500F011F8060002D042F2080058E069
:10260800002070BD70B500F007F8060002D042F255
:1026180009004EE0002070BD04460D46342002F04B
:10262800F1BE38B50446002500F00EF828B142F294
:102638000A01FFF7E0FE012181742C7002F091FF7E
:10264800BDE8324045E00446152002F0DBBE2DE926
:10265800F04104460D4690461F460026FFF7ECFC65
:1026680030B142F20B01018200F113060721817497
:102678003470A6F80150A6F8038077710699B171F5
:1026880002F06FFFBDE8F04123E070B500F00BF8F1
:1026980030B142F20C01018200F11306022181746B
:1026A8003470757011E004460D460026162002F0BD
:1026B800A9BE30821F222020B074294606F11300DB
:1026C80000F8014B00F054FB304602F04AFFBDE829
:1026D8007040DFF8A803FEF799BF2DE9F8430546D7
:1026E800032028618846144699460622DFF890138D
:1026F80005F1200000F04CFB0020A8620120E863EF
:102708000A9A0999284600F084FA2D2002F07AFEE8
:10271800060027D042F20D0000F0FCF81920B07432
:102728000622C8203880788005F11401002038710D
:10273800E8697871B81D00F01BFB00203873A7F812
:102748000D80A7F80F40A7F811900898A7F8130074
:102758000020A7F81500A7F81740304602F001FF3F
:10276800002001E04FF4C170BDE8F28380B502F0AB
:102778003FFE18B142F20E01FFF736FF3FE638463A
:10278800BDE8F24002F0EDBEF8B500F0A6F950B190
:1027980042F2130100F08FF9E18D118000F091F9F8
:1027A800BDE8F24095E7F2BD2C80BDE8324002F06A
:1027B800D8BE018200F113050221817470472DE90A
:1027C800F8430446884615469946302002F01AFE1A
:1027D800070018D042F2190000F019F81C20B8744C
:1027E8000822E08D30804146B01C00F0C1FA7581A6
:1027F8001022494606F10C0000F0BAFA384602F0F9
:10280800B0FE002001E04FF4C170BDE8F2833882C9
:1028180007F113067047F8B50D0004460BD10025E3
:10282800162002F0EFFD18B142F21B01FFF7C1FFBD
:10283800E18D298013E00026262002F0E3FD070041
:1028480005D042F21A00FFF7E2FF1220B8741022F6
:10285800E08D30802946B01C00F08AFA38468FE7B0
:1028680010B5FFF7F0FE28B142F21D01FFF7B0FCEA
:10287800FFF788BCFFF76FBC70B500F01CF8FFF7D6
:102888005DFC30B142F21E0100F004F84D708E700C
:102898006EE06AE001820321817400F113010C707B
:1028A800704780B502F0A4FD10B142F21F0163E049
:1028B8004FF4C17002BD04460D461646704780B5F8
:1028C80002F096FD40B142F21801FFF78DFE02F0CA
:1028D80048FEBDE80240FCE602BDF8B5FFF79CFEE5
:1028E800060015D042F2170000F014F82020B0744A
:1028F8001022214607F1100000F03AFA102229466A
:1029080000F05CF8304602F02CFEBDE8F240E0E64C
:102918000020F2BD308206F1130770474FF4C170F2
:1029280032BD80B510B1022809D001BD03F004FD05
:10293800012816D0BDE80240FFF707BD01BD02F02F
:1029480081FD0028FAD0017C0E29F7D1817C484A04
:1029580051600129F2DB02F056FD03F0EBFC01287F
:10296800ECD10220FEF75AFEE4E74FF4C17070BDC7
:1029780002F0F7FD002070BD01820021817402F091
:10298800F0FD002002BD0000CC560020A05A002017
:10299800288206220620A87404F1140105F1130008
:1029A80000F0E6F9284602F0DCFD002032BD4FF4C5
:1029B800C170F2BD0446162002F024BD384600F06E
:1029C800D7B904460D46172002F01CBD10B5FFF715
:1029D800F1FF18B141F20541FFF7CFBBFFF7BBBBD1
:1029E800F8B504460D461E2002F00CFD06000DD079
:1029F80040F22E40FFF78EFF0A20B074062204F141
:102A08001401FFF7DBFFC7F8065000E0CFE73046B8
:102A180002F0A7FD0020F2BD38B5044600F023F807
:102A2800050002D040F22F40B2E777E738B50446F8
:102A380000F019F8050002D040F20E40A8E76DE753
:102A480038B5044631B100F00EF8050009D040F25F
:102A58002C409DE700F007F8050018BF40F22D4014
:102A6800F7D15BE700251A2002F0CCBCEC5A002015
:102A7800B05600200CBF0100E85A0020E65600209E
:102A8800E056002010B5FFF795FF18B140F6164143
:102A9800FFF773BBFFF75FBBF8B500F01EF848B14E
:102AA80042F2200100F007F8148000F00AF8BDE8AF
:102AB800F2400EE6F2BD018200F113020E2181748C
:102AC800704755809680D7800699118100215181E1
:102AD8004FF6FF71918102F044BD04460D4616463B
:102AE8001F46222002F08EBC90490A680AB90020CD
:102AF8007047D2680021101A00D400D1012108467D
:102B080070478A49096811B94FF0FF307047C968A2
:102B1800081A40004008704710B50446206920B1E3
:102B2800A168002958BF00F020F92046BDE81040F0
:102B380000F01BB97D490020086070472DE9F84F67
:102B48007A4C25688046894692469B46002604E0D2
:102B58006F682846FFF7E0FF3D46BDB1286840454D
:102B680001BFA8684000400848450CD15FEA0B0047
:102B780003D028695146D84728B96868002E14BF81
:102B880070602060E4E72E466D68E6E7BDE8F18FE7
:102B980000230022D2E7F8B504001CBF20680028F3
:102BA8000D4616461F4608D126B1002D5CBF30469B
:102BB80000F0DBF84FF4C670F2BD142000F0BBF84B
:102BC80068B10021016185600661046000225849EE
:102BD800564B09687918C1601C6825460AE026B179
:102BE800002D5CBF304600F0C0F84FF4C170F2BD54
:102BF8002A466D6815B1EE68B142F9D212B944603F
:102C0800186002E05168416050600020F2BD002366
:102C1800C1E770B504460D4616460C2000F08BF847
:102C280010B94FF4C17070BD4560866021680160BD
:102C38002060002070BD2DE9F04105460027286876
:102C48000E469046002801E0074620000ED0426854
:102C58000168B24204BF826842450C46F4D1002F95
:102C68000CBF2960396000F080F8EEE7BDE8F0811C
:102C780038B504462D492068096807E00A68A24269
:102C880003D18A6802F000428A6049680029F5D1B8
:102C980020B1056800F069F82846F9E7206031BDE1
:102CA8002DE9F04104000D4690460DD0276800E05C
:102CB80037464FB13E68B8687F6843462A46214682
:102CC800B8470028F4D000E00020BDE8F0812DE9E5
:102CD800F041174C154D20601AE070682860B06804
:102CE80040001CBF306800280FD007686FB1B26879
:102CF80050000AD0D7F80080B868336931687F6817
:102D0800B84710B95FEA0807F1D13046FFF704FF6A
:102D180026683046FFF7E8FE18B12E68002EDCD191
:102D2800F6E73046BDE8F041EBE60000545A0020D3
:102D3800505A0020704738B5C01C8408A000FEF720
:102D48004DF8050001D1002032BDA10000F034F992
:102D5800284632BD38B50446FFF7EDFF05001CBF15
:102D6800214600F029F9284632BDFEF792B9000045
:102D780062B38B0708D0521E11F8013B00F8013BE3
:102D880000F024808B07F6D1830740F0208000BF35
:102D9800103A07D330B4B1E83810103AA0E8381028
:102DA800F9D230BC530724BFB1E80810A0E80810D6
:102DB80044BF51F8043B40F8043BD20724BF31F824
:102DC800022B20F8022B44BF0B7803707047083A97
:102DD80007D3B1E80810083A40F8043B40F804CBA0
:102DE800F7D25307E4E7002A70B505460E460220DD
:102DF80003F0CFFA040027D0682100F0DDF8E6617F
:102E08000622294604F11400FFF7B2FF4FF0FF3005
:102E180084F8540000206249401C0A68C0B204E0EB
:102E280092F82C309842F7D09268002AF8D184F8AA
:102E38002C0040F6FF70E085002020640868A06040
:102E48000C60204600F0AEF8204670BD00B1C18588
:102E5800704710B504003ED094F904000128A4BFBF
:102E6800401E207194F90400012809D1207B8007B5
:102E780006D5206900281EBF01282046FFF7FAFA68
:102E880094F90400012826DA2046FFF7D3FA04F162
:102E9800300002F0C0FC04F14C0002F0BCFC4049D8
:102EA800086858B1844203D1A068086006E0084663
:102EB800816819B1A142FAD1A168816000220FF29C
:102EC80019012046FFF7A5FE2046BDE81040002264
:102ED8000121FFF79CBE10BD10B5012A0C4602D097
:102EE800022A07D004E0002202212046FFF78FFEC5
:102EF800002010BD2046FFF7BBFE2146022003F04C
:102F080053FA012010BD2649096800E089680029A4
:102F18001CBFCA8D8242F9D108467047204909680A
:102F280000E0896800291CBF91F82C208242F8D162
:102F38000846704770B50446194806680D4600E013
:102F4800B66856B1F069A842FAD10622214606F1C0
:102F5800140003F037FA0028F2D1304670BD38B5B6
:102F680004460F48056800E0AD685DB1286904288B
:102F7800FAD13CB10322214605F1170003F022FAE9
:102F88000028F1D1284632BD10B9054800687047BD
:102F98008068704702490020086070470000000000
:102FA800E85A002010B10179491C017170470328C3
:102FB800002203F03DBA0028002203F057BA002887
:102FC800012202FA01F1084070470A431040884282
:102FD80001D101207047002070470268012303FADD
:102FE80001F11143016070470268012303FA01F1FE
:102FF80022EA010101607047012802BF487900F008
:10300800C000402801D1012070470020704770B5EA
:103018001546202D044602DB4FF4C07070BDDFF862
:103028005869002C14BF06F1540006F13400FFF76C
:103038009FFE002C07BF86F85350042186F8735072
:10304800052106F13000FFF7C8FF00F0E5F9002080
:1030580070BDDFF82409002101604160816081852D
:103068004185002264218182C821C1820021018317
:1030780064214183A02181834FF4A071C18307217A
:1030880080F82010102141848184002180F82610C6
:103098004167DFF8E8080FF6B101FFF7BABD10B5D0
:1030A80004460A20FFF747FE94F82C10017004F13B
:1030B8002C014A7E02F00302012A03D0032A0CBF26
:1030C8000222002202728A8E4280CA8EC280024682
:1030D800098F81804FF48471BDE81040AEE070B56F
:1030E8000446DFF894580846696FA9B14C72A86F76
:1030F80000B1447200F029F8DFF880486A6F40F2A6
:10310800071600F051FB0020AA6F68679AB100F01B
:103118004BFB0020A8670EE0FFF721FF05000AD04F
:1031280085F85440002105F10C00FFF756FF0021F7
:10313800284600F0B9FA0020FFF711FF20B1BDE8DA
:103148007040143003F013BA70BD012105F130004E
:103158004AE710B5921E002301E053FA84F39A421D
:1031680008DB5C186478844201D1581810BD5C5C97
:10317800002CF2D1002010BD70B50446DFF8F857D6
:10318800607804282CD00021FFF7E0FFA27A04F130
:103198000B010120FFF7DDFF002100B181782868CD
:1031A800012802D0022807D009E0C80707D4204622
:1031B800BDE87040FFF7D9BD03200142F7D0207A5F
:1031C800A11CFFF719FFC8B1A01C03F0D0F9002813
:1031D800EDD0012105F13000FFF7FFFE6C6770BDEF
:1031E8002E6B002100F02FF818B900F02BF80028FA
:1031F800DDD000F027F808B1AC6770BD207A10B9AF
:103208000622A11C09E0012802BFE07900F0C000F5
:10321800C02805D10622A11C012002F091F800E087
:10322800FF206072002105F13000FFF7D6FEFFF79E
:103238008CFF2246BDE8704040F20711DFF83C07DA
:10324800FFF7E5BC01213046BAE6F8B50D4616464B
:10325800AE421F4639D3A91F40F67B42914234D271
:10326800B6F5486F31DCB7F5FA7F2EDA069CA4F183
:103278000A0340F677418B4227D27A1C06FB02F1FB
:10328800B1EB840F21DAFF2807D1DFF8EC0685823D
:10329800C682078344830020F2BDFFF73FFE002863
:1032A8001CBFC169102910D0C16B009401293B468D
:1032B8003246294606D1FFF767FA0028EBD140F2DB
:1032C8008110F2BD02F0BEFCF2BD4FF4C070F2BD39
:1032D80030B5039C2025234307D0DFF8A43653F8E4
:1032E8002430022B14BF032BA025A84228BFA942D3
:1032F8000AD344F201039942B8BF984204DA8142E2
:1033080002D3082A00DA0AB9002030BD012030BDF6
:10331800F8B5DFF864767B680446B868C0B20090F8
:103328000D461646DBB22046FFF7D2FF00B9CCE7C0
:1033380006F0070087F82000BC83FD83022107F10F
:103348003000FFF74AFE00F067F80020F2BD10B524
:1033580043F6FD73041F9C423CBF0C1F9C4201D2E4
:10336800884200D216E1DFF81046608404F122009A
:103378004180027100F0F1F8082100F0EFF800F048
:103388004BF8002010BDB0B505460F46052DB8BF57
:10339800042F82B00ADADFF8E04594F82020009183
:1033A8000346E18BA08BFFF793FF10B94FF4C07071
:1033B800B6BD5FB12068042805DAA08D002804BFD7
:1033C800608D002802D040F28110B6BD6068854249
:1033D80004BFA06887421DD06560A760032100F084
:1033E800BDF8022100F0BAF8042D11D060682169F7
:1033F80001281CBF0228002009B940F00400002160
:1034080000F04EFA042100F0A9F8052100F0A6F812
:1034180000F002F80020B6BD30B5DFF85C45208D1D
:10342800002887B06CD1256B0022442100F090F869
:10343800B0B100200390002394F82000A168029006
:1034480004A8019000200090DFF8340550F82120EE
:10345800E18BA08BD2B2FFF799F8208502214DE0CD
:103468004022082100F074F828B10020FFF7D9F8AD
:103478002085062152E00022102100F069F840B1B1
:1034880094F8530004F13401FFF7B2F820850421C1
:1034980034E00022202100F05BF840B194F873007A
:1034A80004F15401FFF7AEF82085052126E000223B
:1034B800482100F04DF878B1032100F04BF80621BF
:1034C80000F048F8A068002804BF6068002803D00E
:1034D8000120FFF7A6F838E0256B00224FF4207191
:1034E80000F036F868B100200090A28C618C94F846
:1034F80026000023FFF7ABF82085072100F02AF803
:1035080024E04FF400724FF4807100F021F840B1CC
:1035180000210020FFF7B9F82085092100F01EF8E6
:1035280014E000224FF4407100F012F870B1082145
:1035380000F010F8092100F00DF82068401E03285B
:1035480004D200210120FFF7A0F8208507B030BD84
:1035580028463AE504F1300046E5072104F1300039
:103568003BE510B5032800DB14E0DFF80C442168C4
:1035780011B140F2811010BDDFF8081451F8200095
:103588002060FFF7EAFF0821FFF7E8FFFFF744FF95
:10359800002010BD4FF4C07010BD80B5DFF8D8030F
:1035A8000168491E022909D8002140F8301B08216A
:1035B800FFF713FDFFF730FF002002BD40F2811036
:1035C80002BD2DE9F04784B080460C9CDFF8A87353
:1035D800002020600D46788D002804BF3868002838
:1035E8001646994601D1B86810B140F281100AE038
:1035F80005B1012529464046FFF7F6FB5FEA000AB8
:1036080003D14FF4C170206017E0062241460AF149
:103618001400FFF7ADFBCAF81C50CDF808900196CE
:10362800788B00903B8BFA8AB98A5046FFF755F899
:10363800206020B15046FFF70CFC002008E007206E
:103648003860504600F019FC5046FFF7ABFC504676
:1036580004B0BDE8F08710B50446FEF70BFF20461E
:10366800FFF7F7FB002010BD30B5044683B0206992
:10367800042818D001910094E16BBF48012903D1B7
:10368800818D491E818502E0418D491E418540F2A8
:10369800032500AA2946B948FFF702FB00AA2946D4
:1036A8002046FFF7FDFA37BD38B504460D46E068F9
:1036B8000021FFF785FC90B9E06904F11401FFF7D8
:1036C8009BFC60B194F9540010F1010F07D104205C
:1036D800206104F11400BDE8324002F048BF15B97A
:1036E800204602F06AFFE16BA34801291ED10021A0
:1036F800016035BB818D491C818502202061042031
:10370800FFF719FB0460024640F206219B48FFF7C9
:103718007EFA0420FFF70FFB024640F202211460F4
:1037280000F043F82046BDE83240B8E4002181604B
:10373800416035B9418D491C4185204600F09DFB0B
:10374800DBE70820FFF7F7FA4560046002462046E9
:10375800BDE8384040F20121FFF759BA70B5044678
:103768000D460C20FFF7E7FA06001CD03460294606
:1037780094F8450010F0010030711CBF94F8450022
:1037880000F00200707194F85400B071B5602046E2
:1037980001F0A9FB32464FF4017100F006F820460B
:1037A800BDE870407BE470BD31462046FFF72FBA74
:1037B800FEB50F46032F0546164632DB089C8C42A1
:1037C80028BF0C4602A9022002F0EFFF00F062F8C1
:1037D80038B30021ADF8001001AB014600AA002063
:1037E80003F00CFABDF800108C4288BF0C46019912
:1037F800ADF80040A9B9BDF8001091B1891C8F42FD
:103808000FDBBDF80010491C29706E700146BDF829
:103818000020A81CFFF7ACFABDF80000801CC0B25D
:10382800FEBD0020FEBDDCB50E46032E04462FDB90
:1038380055480088ADF802000DF10201022002F09F
:10384800B4FF00F027F8010022D000200927ADF8C6
:10385800000001AB00AA03F0D1F9BDF80020B11EA9
:10386800914204DA082E13DBADF800100827BDF8E2
:10387800001069B1491C217067700146BDF800202D
:10388800A01CFFF775FABDF80000801CC0B2D6BDB9
:103898000020D6BD02464FF6FF71012003F08EBA14
:1038A80038B5354C04F134050021E97784F87310F4
:1038B800A870022184F83410032001216970009156
:1038C800E877C0F11F01001942F607230A223430B5
:1038D800FFF76EFFE97F40180421009100F02DF8F2
:1038E80042F604231222C9B23430FFF761FFE97FA0
:1038F8004018E877C0B2C0F11F010019343003F056
:1039080038F9E97F401800F018F8C9B23430FFF7E9
:103918008AFF70B994F87300C0F11F010019C9B289
:103928005430FFF780FF94F87310401884F8730040
:1039380031BDE97F4018E87731BDE877C0F11F0154
:10394800C0B200197047000080B5062A09D040F6B9
:103958000700824203D11888D91C02F0ECFD002030
:1039680002BD05481A88018D9142F8D100210185D0
:10397800FFF752FD012002BD1C5200209C5A002076
:10398800FCBE01005CBF0100EE2D0000012202FA1E
:1039980001F1084070470268012303FA01F111435D
:1039A800016070470268012303FA01F122EA01016C
:1039B8000160704730B5002304E01C5C5D5C6C401E
:1039C8001C545B1C9342F8DB30BD2DE9F0410446E2
:1039D8001646E06B0228A06C90F8802088460CBF41
:1039E80001250025511C80F880101F46069907986C
:1039F80032B1022A12D009D3042A40D01FD349E099
:103A080048B9A16C032081F880000DE060B108225C
:103A18003046FFF7ADF9FEF752FF2CE020B108223F
:103A280006F10800FFF7A4F9A06C001D00210A5C4C
:103A38008B5D5A40CA55491C1029F8DB17E0102243
:103A48003846FFF795F9002D14BF002006200622FE
:103A580004F12001C019FFF7ADFF002D14BF0620A7
:103A68000020062204F11401C019FFF7A3FF414604
:103A78003846FEF732FFA16CA1F878000AE0102260
:103A88003846FFF775F92046BDE8F041002245F2B7
:103A98000D0121E2BDE8F08110B5447A14B908237C
:103AA8004372082412198272427A101850F8102FA3
:103AB80061F30702026010BD816C41B9C06B012837
:103AC80002D10FF2355070470FF6E9407047086889
:103AD800704710B50446A06C28B98820FFF73AF95A
:103AE800A06418B910BD8821FFF762FAE06BA16CD9
:103AF80001280CBF0FF201500FF6B94008600120F1
:103B080010BD70B504460D46FFF7D6FF06462A4697
:103B180045F201012046B047A06C056032464FF4DB
:103B2800A0412046A84770BD072AB8BF072202DB7C
:103B3800112AA8BF1022DFF8BC3B18601A720800CF
:103B480018BF012098767047DFF8A83B08B958726B
:103B58007047012159721022014603F10A00FFF74C
:103B680007B980B5DFF88C0B032101601022002112
:103B780041728176072101721B30102102F072FC1C
:103B8800BDE8014001F059BB70B588B004460E4647
:103B98001546FFF791FF0FF61D41884220D100F02E
:103BA800D0F80FD1300A8DF801008DF80060082296
:103BB80029460DF10200FFF7DBF80A2200A90420CC
:103BC80001F0BEFB10F1010F1DD0102303AA05213F
:103BD80001F0E4FBB8B103A92046FEF71CFE1AE089
:103BE800002E01BFA06C0168DFF80C2B91420AD1AE
:103BF80000214A5D12B9491C0829FADB082908BFC7
:103C080000F1540104D040F2062100F033FC0021F9
:103C18002046FEF700FE08B070BD70B500F00FF842
:103C2800060000D110E01122042113E070B500F065
:103C380006F8060000D107E0112203210AE0044635
:103C48000D46002001F05FBD0121DFF8B00A03F046
:103C580013F900BFFFF720FF10222946401CFFF789
:103C680087F832462046BDE87040062101F0ACBF17
:103C780038B50446487A401800F11405E06B01286D
:103C88000CBF0FF275310FF62D3100F0F8FB687894
:103C980040F440712046BDE8344001F095B970B554
:103CA800044601F0C7F8064600F036FD050000D1CD
:103CB800CAE701F0BFF870B176B100F042F803D05E
:103CC800A16CC1F8840007E004F15C0001F0CFFAB0
:103CD80000F0ADF800D10026072201212846FFF7A1
:103CE800DBFE0146DFF80C0AD1F80130026862F306
:103CF8000703C1F801303300427A8A7018BF0123E4
:103D0800CB70002A04BF0068032803D0C87840F0AD
:103D18000400C87010200871002E14BF072000206E
:103D2800487188710722A06C801DFFF721F836B111
:103D3800A06C90F87410890701D400F06CF82A463A
:103D480090E794F9540010F1010F70472DE9F04104
:103D5800044600F0E1FC5FEA000800D174E7A06CBB
:103D6800861DF07800F0050707F0FE0501F062F8FF
:103D780078B1F8070DD5FFF7E4FF03D0A16CC1F8BF
:103D8800840007E004F15C0001F071FA00F04FF8DC
:103D980000D12F46DFF85C59687A002802BF2868EE
:103DA800032807F0FB07072202214046FFF774FEAD
:103DB80001462868D1F8012060F30702C1F8012004
:103DC800687A8870CF7010200871F80707D5707965
:103DD80000F007004871B07900F0070001E000200A
:103DE80048718871A26C887982F87500A26C48794C
:103DF80082F874000722A06C0D30FEF7B9FFF807AF
:103E080006D5A06C90F87410890701D400F003F867
:103E18004046BDE8F081E16901B10121D0F8840094
:103E2800062304F11402C9B240B201F077BAA16CBA
:103E3800C1F8840010F1010F704770B5FFF7FFFE5D
:103E4800060000D100E7E06B01280CBF0FF2A911B2
:103E58000FF6611100F013FB022205213046FFF72F
:103E68001BFE4570324600F0DDFDADB245F44071F1
:103E78002046BDE8704001F0A7B838B504460020D8
:103E8800A06404F14805E06918B9062204F1140198
:103E98000AE0012802BF607E00F0C000C02806D1F9
:103EA800062204F11401012001F04AFA287395F959
:103EB8000C0010F1010F0DD0082304F1580208215D
:103EC80001F06CFAE87C28B194F8450040F0020053
:103ED80084F84500002032BD70B504000D46164632
:103EE80007D0FFF7E9FD034600F044F9BDE870404C
:103EF800184740F2811070BD70B5044615461E463D
:103F0800DFF8F80702F0AEFF18B102280AD0012046
:103F180070BD00F02FF9FFF7DFFF401E8041C00F92
:103F280040B270BD002070BD73B504460846497A9A
:103F3800081800F114052868010602D0C0B20C2840
:103F480003DB01A801F067FC73BDDFF8B0673046FA
:103F580002F088FF80B1022805D0019904F14C00D5
:103F680001F052FD73BD0020019004F14C0001F0F6
:103F78005DFC019078B973BD01980028F5D0A06C5C
:103F880000281CBFE06C002805D0019904F14C0002
:103F980001F015FD73BD2878019A00F5A041491C70
:103FA8002046FFF799FF01A801F035FCE06C18B135
:103FB8000221304602F060FF73BDB1F5A04F08D171
:103FC800C16B01294FF4A04108BF00F015B800F0FB
:103FD800F1BBC7E338B545F2100504462946FEF79C
:103FE800D7FD2946204601B0BDE830404FF4F033F4
:103FF8000022FEF7D0BD0000F8B504464FF4A043F8
:10400800C81ADFF8085DDFF8086D45F210072FD0F1
:10401800401E16D00B3802D0801E06D051E094F80E
:104028002C00BDE8F24000F06FBF2046FFF751FDBD
:104038002046FFF734FE0FF2451100F020FA002069
:10404800F2BD224631462046FEF7E3FD22463146C0
:104058002846FEF7DEFD2046FEF7A4FF4FF4F033B6
:10406800002239462046FEF796FD4FF4C270F2BD95
:1040780039462046FEF78CFD04F12C07F869002824
:104088001CBFD0F8840010F1010F06D097F9281052
:1040980081421CBF40B201F017F922463146204642
:1040A800FEF7C9FD224631462846FEF7C4FD2046E4
:1040B800FEF7CFFEF86908B1FEF757FE0020F86159
:1040C800D3E72046BDE8F8404CE310B50446104657
:1040D80045F20603CA1A06D0093A08D100F0DCFCFA
:1040E80000F0CBF901E000F036FD002010BD35E30B
:1040F8007CB50D46044640F60701681A164622D0DC
:10410800401E20D044F2F871401A04D0801F15D008
:10411800C01F08D028E0A16C81F880000121A06CA4
:10412800019100211BE0A06C00F114012046FFF76B
:104138007DFD0FF2B11100F0A2F902E0314600F066
:104148000BFD002076BDA06C3188B0F87820914234
:104158000AD10021A0F8781001210191F11C0091E9
:1041680000F1140300F0F0FC00F004F802B0BDE820
:104178007040F7E232462946204670472DE9F04163
:1041880000F0D7F807D0C01E11D0C01E00F0A680DE
:10419800083809D001E000F07CFCFFF7EBFFBDE830
:1041A800F041DFE2BDE8F08140F28110FAE7707A71
:1041B800801900F1140704F11C08F878D8F82C507D
:1041C800C00708D400F044FE28B1052100F005F925
:1041D8004FF4C070E6E7DFF81C653879317A884219
:1041E80038BF0621F2D3787985F875000722B879A7
:1041F80085F87400394605F10D00FEF7B9FD281D54
:1042080002214172E169012918BF00214170D8F8E3
:104218000C00012818BF0020287104F15A083879C9
:104228001028A8BF102084F85A00A81D717A002908
:104238001EBFB978002904271CD1F978490702D490
:10424800C07840070ED5D7F80100DFF8C81AC0B209
:104258000528A8BF0320142212FB0010316850F86B
:10426800217000E00027B07E10B10FB90321ADE73F
:10427800042F1DD1102206F10A0105F15400FEF7A2
:1042880077FD012105F17C00FFF785FB012088F807
:104298000100DFF8841AC7B1022F1AD002D3042F05
:1042A80013D014D200F0EBF8204600F0ECFE0EE03C
:1042B80005F1540000F0BAFB002FE2D1012105F10D
:1042C8007C00FFF76FFB88F8016000F0D6F800204B
:1042D80068E700F0D4F800F0A0FBF8E7314600F0FA
:1042E8003BFCF4E770B500F024F804D0001F07D0B9
:1042F800801E1AD001E000F0CCFBFFF73BFF36E749
:10430800707A801900F11501A06C10222430FEF794
:104318002FFDA06C00F144012046FFF77EFC0FF250
:10432800210100F0ACF8002070BD314600F014FC0B
:10433800F9E70D4604464FF4A041681A164670473F
:1043480030B500F098FC83B019D044F2F973D21A52
:1043580006D0521F07D0521E35D0D21F1CD035E0D0
:1043680000F097FB8EE000F062FC3430FEF700FDB1
:1043780000F076FC00F1340200F0E8FBF2E700F010
:1043880050FCEFD100F05AFC05F1340205F154015C
:1043980000F0DEFB00203EBDA56C102205F12401D3
:1043A80005F1640002F00EF810B100F015F8F1E71D
:1043B800E86F0121FFF7EAFA00F049FC0FF221014A
:1043C800FFF79FFBE6E700F0C6FBE3E7024620465F
:1043D80003B0BDE83040C5E1042120462DE50000CA
:1043E80030B500F0CDFB83B02BD044F2F972801ABF
:1043F80021D0113838D194F84500DFF82019C007CA
:1044080013D5A06C90F87420002A02BF743040784D
:10441800002804D00FF2093100F031F809E000F06B
:104428002EF8204600F0BFFD03E000F028F800F069
:1044380020F800203EBD00F096FCA16CA1F87800A1
:1044480020E000F089FCFBD100F07FFC00F074FC58
:1044580000A80021002206C0A06C00F1540300A9A6
:104468002046FEF7ACF9EBE72A46204600F07AF939
:104478003EBD2946204600F0A7BDDFF8A418204617
:10448800FFF73FBB4FF4C2703EBD38B50546FF2469
:1044980045F20700091A08D0491E0AD0491E0DD056
:1044A800491E0FD0491E27D02FE01023521C03218C
:1044B80026E0FE240A23521C022121E01023521C6C
:1044C80006211DE05178FD24002039B9811889782A
:1044D80011B9401C0628F9DB062805D0517801B12E
:1044E80001210623921C0BE0E96901B10121062391
:1044F80005F11402C9B203E0FB241023521C072162
:10450800A86CD0F8840000F0FFF8A86C90F874103C
:10451800214080F8741031BD2DE9F84F814609F12A
:104528003C06D9F83C00D6F80C80012816D198F83A
:1045380074000127002845D198F8754004F002005E
:1045480008F178058DF80000287A062800F2A28084
:10455800DFE800F032060D395D738C000027EBE7C9
:1045680008F16C000CC808F164010CC124E0E007F4
:1045780002D40320287248E000F0CEF8070021D0CA
:10458800B07FC0F1100140446430FEF715FD1122E0
:1045980006213846FFF780FA0646102208F1640122
:1045A800701CFEF7E5FBE8681023721C052100F07B
:1045B800ABF83A4600F0ACF8FEF781F9A8F87800B5
:1045C80000F09EF894E0E0071FD500F0A5F85FEA38
:1045D800000BF7D00B220721FFF75EFA8246E86846
:1045E80040F43F40AAF80100082208F164010AF1EA
:1045F8000300FEF7BDFBE8680A230AF10102042163
:1046080000F082F85A4600F083F800F079F89DF837
:10461800000080B100F080F85FEA000868D011223D
:104628000821FFF739FA1022DFF8F816401CFEF7C8
:104638009FFB00F06CF800F063F89DF8000098B15B
:1046480000F06AF85FEA000852D008220921FFF753
:1046580023FA0346002058700622DFF8CC16981C6F
:10466800FEF786FB00F053F800F04AF860070FD514
:1046780000F052F804003BD011220A21FFF70CFA8F
:10468800AB221021401C01F0EDFE224600F040F85C
:1046980000F036F83FB9F06890F87400002804BFBD
:1046A800287A072824D1E868082309F15802082144
:1046B80000F02AF828B14FF4C171484600F084FC94
:1046C8000BE0F068D0F8840030764FF0FF30F168E6
:1046D800C1F88400484600F066FC002F4846BDE853
:1046E800F44F14BFDFF834160FF2C901FFF709BA07
:1046F800BDE8F18F585700208D4C0000185300205A
:10470800287A401C2872704740B200F007BE424623
:104718000621484601F058BA002000F0F4BF000016
:1047280010B500F066FB07D044F2F873D21A0FD028
:10473800D21F042A09D910E000F045FB04D100F08B
:104748004FFB2046FFF7E8FE30E000F042FBF8E7B9
:1047580000F09FF900F003FAF3E700BF0246204695
:10476800BDE8104010B5044640F20320814204D051
:1047780045F21000814211D018E0E06B012806D103
:104788002046BDE8104000224FF4A04134E4204602
:10479800BDE8104000224FF4A0410BE0DFF88C1573
:1047A800FFF76DFE40F28511FFF764FE4FF4C2700B
:1047B80010BD00002DE9F047914604464FF4A04291
:1047C800881A04F14805DFF86865DFF84075DFF8F6
:1047D800408545F2100A00F0F480401E00F0D980B0
:1047E800401E23D0001F02D0083804D010E14946EB
:1047F80000F0B2F9CBE000F01DFB0546FFF78CFF97
:10480800070001D1FFF720BA02220B21FFF744F974
:104818002900326818BF0121032A0CBF0022042294
:10482800114341703A4600F0FDF8B0E095F90C00EC
:1048380010F1010F03D094F84500C0071BD520469E
:10484800FFF747F908B9082116E099F80900A76C9D
:10485800484400F1140800F0EFF898F80400317AA1
:10486800884201D2062107E098F80300C00706D461
:1048780000F0EEFA18B10521FFF7AFFD6CE000F08B
:10488800DBF80120B871E069012818BF00203871F1
:10489800A06A012818BF0020787198F80400102831
:1048A800A8BF1020A8742046FFF750FA8146717AF5
:1048B800B81D00291CBF98F80210002928D04FF015
:1048C80004084A4600F0AEF8B8F1040F47D11022A8
:1048D80006F10A0107F15400FEF74AFA012107F12F
:1048E8007C00FFF758F80120B8F1000FE8740FF2C8
:1048F800551148D0B8F1020F3FD004D3B8F1040FD6
:1049080041D03AD343E0FFF7BAFD00F086F83EE025
:1049180098F80310490702D4C07840070ED5D8F894
:104928000100DFF8F0133268C0B20528A8BF0320E1
:10493800142303FB021151F8208001E04FF0000816
:10494800B07E0028BDD0B8F1000FBAD10321FFF71F
:1049580044FD484600F0F6FE4FF4C0702FE007F122
:10496800540000F063F8B8F1000FB7D1012107F146
:104978007C00FFF717F80020B6E7FFF780FD204618
:1049880000F081FB03E00FF21D11FFF778FD002016
:1049980015E0224641462046FEF73BF922464146AD
:1049A8003846FEF736F92046FEF7FCFA4FF4F033A6
:1049B800002251462046FEF7EEF84FF4C270BDE8DB
:1049C800F08751462046FEF7E3F8A06C00281CBF8C
:1049D800D0F8840010F1010F06D095F90C1081422F
:1049E8001CBF40B200F070FC224641462046FEF74C
:1049F80022F9224641463846FEF71DF9A06C08B157
:104A0800FEF7B3F90020A0642046FEF722FAD4E7A7
:104A18004A462046BDE8F047A4E601220021204688
:104A280000F000BB0621204601F0CEB8002100228C
:104A38000B460E464EC0704707224146B81DFEF78A
:104A480097B9000010B5044610464FF4A043CA1A9F
:104A580006D0121F0FD0921E17D0093A03D017E0C4
:104A680000F017F8A2E600F017F80FF23901FFF787
:104A780006FD002010BD417A081800F07AF8A06CF5
:104A880000217C30FEF787FFECE700F064F8F0E7E0
:104A980094E12046FFF79EBA0146A06C04225430E8
:104AA800FEF766B930B500F06BF883B036D0401E1B
:104AB80034D044F2F872801A10D0001F14D0801E2F
:104AC80027D0C01F3ED1A06C00F124012046FFF77B
:104AD800ADF80FF2B901FFF7D2FC1DE0FFF7D9FFDF
:104AE80000F042F800282CD000F03EF818B9687A97
:104AF800401900F03EF800F032F80121A06C019155
:104B080000F124030021009100F1340200F01EF8A6
:104B180002E0294600F020F800203EBDA06C29885C
:104B2800B0F8782091420CD10021A0F8781000F15B
:104B380024030121019100F13402E91C009100F0E5
:104B480005F89FE42A4667E000F1440200F15401A9
:104B58002046FEF73ABF01462046FFF789B8A16C08
:104B6800002081F880007047A06CC06F0021FEF71C
:104B78000DBF00F11501A06C10221430FEF7F8B833
:104B88001546044640F60702881A704730B500F00B
:104B980072F883B017D044F2F973D21A06D0521FB4
:104BA80007D0521E33D0D21F1AD033E0FFF771FF5F
:104BB80068E400F03CF84430FEF7DAF800F050F80A
:104BC800FFF7C2FFF4E700F02CF8F1D100F036F857
:104BD80005F1440205F15401FFF7BAFF00203EBD7C
:104BE800A56C102205F1140105F1640001F0EAFB3F
:104BF80010B1FFF7F1FBF1E7E86F0121FEF7C6FE00
:104C080000F025F80FF27D01FEF77BFFE6E7FFF7DE
:104C1800A2FFE3E74FEA0002204603B0BDE83040B8
:104C2800A0E5A56C0188B5F8782091427047417AD3
:104C3800081800F11501A06C102270470021A5F892
:104C48007810C01C0191009005F16403704728B1E9
:104C580094F8450040F0020084F84500204670476B
:104C6800A16C002081F880000021A06C01910091C6
:104C780000F1640370470446104640F60703CA1A59
:104C88007047000038B5FFF77BFF2CD044F2F9726B
:104C9800801A20D0113834D194F845002549C0072E
:104CA80013D5A06C90F87420002A02BF74304078A5
:104CB800002804D00FF2C901FFF7E1FB09E0FFF774
:104CC800DEFB204600F06FF903E0FFF7D8FBFFF7A3
:104CD800D0FB002032BD00F046F8A16CA1F87800A6
:104CE8004FF4C27032BD00F037F8F9D100F02DF85A
:104CF80000F022F8A06C00F134012046FEF78DFF89
:104D0800EEE72A462046BDE838402BE59C5A0020AD
:104D1800013F000068B80100D340000001400000D6
:104D2800F940000073570020E0560020C33F000000
:104D380058570020BD47000094F85A00A26CC0F1F3
:104D4800100180185430FEF737B900228A80E91C18
:104D580010225430FEF70CB8A06C2A8800F17401B8
:104D68008B889A427047A06C00F134010CC94C3012
:104D78000CC0A06C00F154014430FDF7AEBD00003A
:104D880010B500F036F807D044F2F873D21A0FD0F5
:104D9800D21F042A09D910E000F015F804D100F058
:104DA8001FF82046FFF7B8FB00E500F012F8F8E717
:104DB800FFF76FFEFFF7D3FEF3E700BF024620467A
:104DC800BDE81040CEE4A36C0188B3F87820914286
:104DD8007047427A101800F114022046FFF755BBBD
:104DE8000021A3F878100822C11C03F16400FDF724
:104DF800BFBF0446104640F60803CA1A7047022887
:104E0800012202FA01F10840704780B5FEF7A9FEB9
:104E180000220321002000F026F89549002008719F
:104E2800BDE8014000F0DEB90100914818BF01213A
:104E38000171704780B58E48007910B900F008F804
:104E480000B1012002BD80B589488068002103E0D7
:104E580080B5874880680121FFF7D2FFC0B202BD44
:104E680083480068704738B505290C4615460EDB9F
:104E7800032421467E4A116090600021FFF7C0FF9D
:104E8800C1B22A462046BDE83840FEF74DBE042987
:104E9800EFD10121EEE780B509B9002002E0102921
:104EA80000D01DE0FEF750FE002002BD02B5FEF75F
:104EB80035F8A8B1C169102909D190F83A1011B98B
:104EC80040F2811002BD0099FDF78AFD02BD00ABDA
:104ED80045F20F020021FFF70FF808B1002002BDCC
:104EE8004FF4C07002BD38B50D4604462B4645F256
:104EF80011020021FFF700F828B925B129462046FC
:104F0800BDE8344060E031BD30B587B0FEF706F843
:104F1800040008BF4FF4C07043D0E06910280BD1DB
:104F2800FFF788FF18B12046FDF74AFA39E001215A
:104F38002046FDF753FA34E0E06B012825D104F14F
:104F4800450595F90F0010F1010F1ED094F8451092
:104F5800C9071AD40A2300AA022100F01FFAA0B137
:104F680095F90F00102303AA032100F017FA60B186
:104F78009DF800009DF8011040EA012203AB0DF1F5
:104F880002012046FDF71BFC0BE0002345F20E0250
:104F980000212046FEF7B0FF002814BF002040F291
:104FA800811007B030BD10B504460220FDF7C3FEDE
:104FB80000F064F894F85410417040F60201BDE81E
:104FC80010402C48FDF723BE38B504460D4608208E
:104FD800FDF7B1FE30B100F01FF8BDE8384040F6EB
:104FE8000101EEE731BD38B50446214800680328C1
:104FF80018BF00280D4605D12046BDE834400121E0
:10500800FDF71EBD0820FDF796FE00F005F8BDE887
:10501800384040F60501D4E794F82C10017045603B
:105028000246704713B5044692B101A9042001F065
:105038002FFF0198104A0146B1FBF2F102FB110063
:10504800019001AB45F20F0200212046FEF754FF04
:105058000820FDF770FE40B100F010F8019941609A
:1050680040F604010348FDF7D2FD13BD000000001F
:10507800445900209C5A002040420F0094F82C10FC
:1050880001700246704710B504460120FDF753FE33
:1050980030B1FFF7F3FFBDE8104040F6030190E799
:1050A80010BD38B504460620FDF745FE05000AD0B8
:1050B800062204F11401FDF75BFE2A46BDE83840DC
:1050C80040F606017DE731BD38B50446154604F1C2
:1050D800540029B1C91E012902D9891E02D003E052
:1050E800002100E00121C17194F9540010F1010F71
:1050F8000ED104F15C0000F0BAF810F1010F84F849
:10510800540018D0062304F11402092100F006F90E
:1051180094F9540010232A460A2100F0FFF894F964
:105128005400082304F15802082100F0F7F820463B
:10513800BDE8324037E731BD1FB5044694F9540045
:1051480010F1010F0BD0102300AA0A2100F026F954
:1051580028B100A904F11400FDF7B2F91FBD002120
:1051680004F11400FDF7ACF91FBD0228012202FA70
:1051780001F1084070470268012303FA01F122EAAD
:1051880001010160704780B5002803D4824A117973
:10519800884201DB002002BDC1B21068FFF7E6FFBC
:1051A80000B1012002BDF0B583B04FF0FF350026F5
:1051B8000027794C11E0206820FA07F1C8070BD5C1
:1051C800082300AA082178B200F0E8F820B1019875
:1051D800A8423CBF05463E467F1C20798742EAD359
:1051E80070B2FEBD30B583B000246B4D05E0019868
:1051F800A968814238BFA860641C2879844210D20B
:10520800286820FA04F1C807F6D5082300AA08215F
:1052180060B200F0C3F80028E9D160B200F054F899
:10522800EAE737BD5C4909680020002903E0CA079E
:1052380048BF401C4908FAD170471CB5564C00AA13
:1052480001A943F6FF7001F02AFE28B900990C2243
:105258002046FDF78DFD13BD002020602020207121
:1052680000206071A06013BD4B4800687047F8B516
:105278000446FFF7D7FF484D2979884205DB68794E
:10528800F8B1FFF790FF00F01FF82F680026F1B281
:105298003846FFF76BFF88B90120B04038432860D3
:1052A80000F036F820B1F1B22846FFF764FF08E0B5
:1052B800A868401CA860206070B2F2BD761C202E41
:1052C800E5DB4FF0FF30F2BD38B510F1010F0446B1
:1052D800314D07D14FF40041084601F0E7FD0020A9
:1052E800286011E0FFF74FFF10B940F20B3032BDD4
:1052F800200240F400404FF47F4180B201F0D6FD17
:10530800E1B22846FFF737FF00F002F8002032BD6F
:105318002A460C2143F6FF7001F0BCBDF8B500F039
:1053280061F810B940F21220F2BD3246394645EA1A
:105338000420BDE8F84040F4004080B201F0AABD66
:105348002DE9FC4104460D4690460027124E306870
:10535800F9B2FFF70BFFB8B144EA072040F4004068
:1053680000AA01A980B201F09AFD002804BF9DF8A7
:105378000400404508D1009830B14246294601F062
:1053880021F808B978B204E07F1C202FDFDB4FF04A
:10539800FF30BDE8F681000050590020F0B583B019
:1053A80000F020F880B145EA042040F4004001AA4A
:1053B80000A980B201F073FD30B99DF80000002803
:1053C8001CBF0198002801D10020FEBD9DF80000F7
:1053D8000199874288BF07463A463046FDF7C8FC20
:1053E8003846FEBD04460D4616461F46CBE6022843
:1053F80080B5012000F087F918B1816841F00401F7
:10540800816002BDF4E700F09DB9016829B10A681E
:10541800026000200860084670470020704710B5F9
:10542800134CA08A30B104F1100104F12400FFF7F5
:10543800ECFF30B904F1080104F12000BDE8104088
:10544800E3E710BD0A49886A18B102688A62002138
:105458000160704706498A6A32B100E00A4611685D
:105468000029FBD1106000E08862002101607047CC
:10547800B056002080B545480068243000F094FA02
:1054880060B18168C1F38001002904BFBDE8024012
:10549800FCF7E0BDBDE80240FFF7DCBF01BD80B509
:1054A800B2F1011F03D1FFF7E5FF012002BD002083
:1054B80002BD10B501F0A4FD344C3549206001F05F
:1054C800BDFF0620216881F83C000420216881F88E
:1054D8003E00002021680862206801F0D3FD2068A2
:1054E80010BD70B582B0294C35E08068009920F075
:1054F800040088602068C56900980099807A497A14
:10550800461A0098042100F0C8F90098417A081852
:105518004CF6FF7330F8101F8904890C018019407C
:10552800009A9268520802F0010282F0010241EAF0
:1055380002310180F6B20099C9680288C98D61F309
:105548000B020280468000A9284601F0A7FE10B190
:10555800009800F0F7F8FFF762FF00280090C4D128
:1055680073BD00B9704780B5009000214172807CFE
:105578000099C01C887200A904480068C06901F03D
:105588008DFE10B1009800F0DDF801BDF05A002042
:10559800A7540000002200E0521C8A4203D210F8EF
:1055A800013B002BF8D110467047032872B67848A3
:1055B800016811F1010F1CBF491C016000687047A8
:1055C8007349086818B1401E086000D162B6704778
:1055D800427A8A18427200E000BF827A8918817282
:1055E80070477047F8B5044600200D4600900FE05C
:1055F800707A80193A46214600F0B8FA39463046A2
:10560800FFF7EAFF314600A800F0D9F93C19ED1B75
:10561800EDB2CDB13C203C2DD8BF284600F081F832
:10562800060004D100A800F0F6F80020F2BD307A98
:10563800B17AC0074CBF002045202F46421ABA4213
:10564800D6D2471AFFB2D3E70098F2BD2DE9F84346
:105658000F0008BF452704460025FFF7A7FFDFF81E
:10566800349127B9D9F80000002848BF01254A4FCE
:10567800DFF828814CB1012C2DD1386800251A2873
:1056880008DBFFF79DFF00203BE025BBD8F80000B2
:105698001A28F6DA012000F07CFE0646FFF790FF94
:1056A80076B300200021024603460FC6103E40F0A4
:1056B8000800B060B172717231607460B0684008FF
:1056C80045EA4000B060F1604DB1D9F80000401CD7
:1056D800C9F8000014E0002DDCD00320DBE7012C22
:1056E80003D13868401C38600AE02CB9D8F80000AB
:1056F800401CC8F8000003E029480168491C016003
:105708003046BDE8F2834521A0E710B545210220C7
:10571800FFF79CFF04001CBF0921FFF759FF204633
:1057280010BD10B53D2801DB002010BD00F10901B6
:105738000220FFF78BFF04001CBF0921FFF748FF79
:10574800204610BD10B5040020D0FFF72FFFA06839
:1057580020F00800A060C00748BF0E4808D4606861
:10576800012808BF0C4803D000280CBF0B480C4880
:105778000168491E01602146207AC0074CBF0320FA
:10578800012000F011FEBDE8104019E710BD00002F
:10579800285A0020B05A0020A45A0020A85A0020F5
:1057A800AC5A00202DE9F0425FEA000918BF002931
:1057B8000BD00C46607AA17ADBB20F1A9F4206DA48
:1057C800591A24684318002CF4D1002021E0A67A45
:1057D8000119301A5918C01A1031C5B202EB09065E
:1057E8004F4605E0607AA27A0119101A1031C5B245
:1057F800B7420CD2E81986423CBFF01BC5B22A4614
:105808003846FDF7B5FA2468EF19002CEAD1A7EB62
:105818000900BDE8F08238B5044603E00568FFF7E3
:1058280091FF256020680028F8D131BD00B9704784
:1058380010B5016800E0026003681A6832B1946824
:10584800C4F34004002CF6D000241C600260084613
:1058580010BD70B50446607A884202D3401A60725F
:1058680017E0227AA37AD2074CBF00224522D21A27
:1058780082188A420FDB0D1A06191A1AA81906F19E
:105888001001103001F0F2FD00206072A07A281893
:10589800A072012070BD002070BD38B504460D46C9
:1058A800FFF7D7FF08B1204632BDFFF72CFF68B1DC
:1058B8000460017AC9074CBF002145218172017A31
:1058C800C9074CBF00214521491B417232BDF8B5BB
:1058D80004460D46607AA17A0A1A561B081A8542B0
:1058E800B6B204DA0020FFF70EFF070001D100204E
:1058F800F2BD607A0019281800F11001787AC019F1
:1059080000F033F9B87A3018B872A07A801BA07208
:105918002068386027600120F2BD38B504000D46C4
:1059280018BF002D0BD0207A697AAA7AA37AC0070B
:105938004CBF00204520521AC01A904201D20020C4
:1059480032BD481900F11001181900F00FF9A87AB2
:10595800697A411A2046FFF73FFE2846FFF7F2FE14
:10596800012032BDF8B504460F46266800203546AA
:1059780005E0B07A717A381A0F1830463668FFB2E7
:1059880067B15EB1B07A717A401A8742F1DA394666
:105998003046FFF79CFF0028EBD1F2BD08B100218B
:1059A800016026602846F2BD016821B10A680260DC
:1059B8000020086001E00022026008467047026883
:1059C80012B901607047024610680028FBD11160C7
:1059D800704738B505680C4615B9046031BD0546F1
:1059E80028680028FBD1206818B1204600F017F875
:1059F80003E02846FFF791FF00B92C6031BD02682B
:105A080002B10A60016070470A0001D170471A4666
:105A18001368002BFBD1036813600160704770B5F1
:105A2800044642E0A27A617A801A50FA81F5ADB252
:105A3800002D39D069B1521A081900F1100104F18A
:105A4800100001F013FDA07A617A401AA0720020BC
:105A58006072206840B38168C1F3400121BB417A7C
:105A6800827AA37A521A92B22E469542C8BF164637
:105A7800081800F11001607A0019181800F075F87C
:105A8800A07A3018A072AD1B2068417A7118417253
:105A9800ADB22068817A427A891A03D101682160FF
:105AA800FFF750FE002DD4D124682CB1207AC0070E
:105AB8004CBF00204520B5E770BD2DE9F14F82B0FD
:105AC800002502980095002888464CD006460027F5
